:100000000C9462000C948A000C948A000C948A0070
:100010000C948A000C948A000C948A000C948A0038
:100020000C948A000C948A000C948A000C948A0028
:100030000C948A000C948A000C948A000C948A0018
:100040000C9417050C948A000C948A000C948A0076
:100050000C948A000C948A000C948A000C948A00F8
:100060000C9461050C948A00000000002400270015
:100070002A0000000000250028002B0000000000DE
:1000800023002600290004040404040404040202DA
:100090000202020203030303030301020408102007
:1000A0004080010204081020010204081020000012
:1000B0000008000201000003040700000000000027
:1000C0000000800611241FBECFEFD8E0DEBFCDBFF9
:1000D00011E0A0E0B1E0E6E9F3E102C005900D9285
:1000E000A43AB107D9F723E0A4EAB1E001C01D9218
:1000F000A730B207E1F710E0C2E6D0E004C02197D4
:10010000FE010E94C309C136D107C9F70E94010749
:100110000C94C9090C94000096E0899FD001112429
:10012000A457BD4F90967C936E935F9791E0919604
:100130009C939197E091F902F091FA029091F80264
:10014000992339F0309751F0811108C08091A802AD
:100150000994309719F05C968C91FACF0895CF925C
:10016000DF92EF92FF920F931F9396E0899FF00129
:100170001124E457FD4F11A2278D30A12130310504
:1001800051F178F02230310509F451C023303105A6
:1001900009F452C01F910F91FF90EF90DF90CF9024
:1001A00008956623B9F361E070E00E948C002FB7D8
:1001B000F8948091650290916602A0916702B091D7
:1001C00068022FBF8093E4029093E502A093E602B9
:1001D000B093E702DFCF9FB7F894C0906502D0904C
:1001E0006602E0906702F09068029FBF0091E4020F
:1001F0001091E5022091E6023091E702C01AD10A7F
:10020000E20AF30A0091F6021091F70230E020E0D2
:100210000C151D052E053F0550F462E070E01F919E
:100220000F91FF90EF90DF90CF900C948C006111B4
:10023000B1CF63E070E0F3CF70E060E0F0CF8330E7
:1002400081F028F4813099F08230A9F00895873048
:10025000A9F08830C9F08430B1F4809180008F7D9E
:1002600003C0809180008F7780938000089584B5CB
:100270008F7784BD089584B58F7DFBCF8091B000CA
:100280008F778093B00008958091B0008F7DF9CF73
:10029000CF93DF93282F30E0F901E255FF4F84918F
:1002A000F901E656FF4FD491F901EA57FF4FC49187
:1002B000CC23A1F081110E941F01EC2FF0E0EE0F82
:1002C000FF1FE458FF4FA591B491EC91ED2381E01D
:1002D00090E009F480E0DF91CF91089580E090E014
:1002E000FACF1F93CF93DF93282F30E0F901E25527
:1002F000FF4F8491F901E656FF4FD491F901EA5777
:10030000FF4FC491CC23A9F0162F81110E941F0129
:10031000EC2FF0E0EE0FFF1FEE58FF4FA591B491C8
:100320008FB7F894EC91111108C0D095DE23DC93BF
:100330008FBFDF91CF911F910895DE2BF8CFCF9320
:10034000DF9390E0FC01E656FF4F24918A579F4FC0
:10035000FC0184918823C9F090E0880F991FFC016B
:10036000E859FF4FA591B491FC01EE58FF4FC5919C
:10037000D49161110DC09FB7F8948C912095822380
:100380008C938881282328839FBFDF91CF91089584
:10039000623051F49FB7F8943C91822F809583236B
:1003A0008C93E8812E2BEFCF8FB7F894EC912E2B06
:1003B0002C938FBFEACF3FB7F89480916102909160
:1003C0006202A0916302B091640226B5A89B05C0A9
:1003D0002F3F19F00196A11DB11D3FBFBA2FA92FC4
:1003E000982F8827BC01CD01620F711D811D911DC1
:1003F00042E0660F771F881F991F4A95D1F708952D
:100400008F929F92AF92BF92CF92DF92EF92FF9224
:100410004B015C010E94DB016B017C010E94DB014E
:100420006C197D098E099F09683E7340810591050D
:10043000A8F321E0821A9108A108B10888EEC80E3D
:1004400083E0D81EE11CF11C81149104A104B104C5
:1004500029F7FF90EF90DF90CF90BF90AF909F90E3
:100460008F900895862F642F0C949F01862F642F00
:100470000C947101862F0C94480108950895AF9251
:10048000BF92CF92DF92EF92FF920F931F93CF9381
:10049000DF936C017B018B01040F151FEB015E01E3
:1004A000AE18BF08C017D10759F06991D601ED9178
:1004B000FC910190F081E02DC6010995892B79F717
:1004C000C501DF91CF911F910F91FF90EF90DF90C9
:1004D000CF90BF90AF90089508952091E501260F29
:1004E0003327331F21323105ECF420912E02FC0119
:1004F00090E080E0243069F082E00895A091E50169
:100500002191AC014B535E4FA40FB52FB11D2C931D
:100510000196861798F38091E501680F6093E501D5
:1005200080E0089581E0089510922E0281E080938A
:100530002D021092080261E082E10E94710161E0E7
:1005400083E10E947101E9EBF0E080818E7F80837E
:1005500080818D7F808388E48093B80085E48093D8
:10056000BC000895CF93DF9391E09093C40188235A
:10057000B9F0C091B800D091BA008091BC008A7BDC
:100580008093BC0060E082E10E94710160E083E141
:100590000E9471010E949402D093BA00C093B800E7
:1005A000DF91CF9108950895E0915D0280915C0202
:1005B000E81730F4F0E0EC55FE4F808190E00895AC
:1005C0008FEF9FEF089590915D0280915C022FEF75
:1005D0003FEF981748F4E92FF0E0EC55FE4F2081EB
:1005E00030E09F5F90935D02C901089580915C02A5
:1005F00090915D02891B990B0895CF92DF92EF9243
:10060000FF920F931F93CF93DF937C01CB018A015D
:1006100020913402222389F0EB016B01C40ED51E18
:10062000CC15DD0569F06991D701ED91FC91019040
:10063000F081E02DC7010995F3CF642F0E946D0270
:10064000C801DF91CF911F910F91FF90EF90DF9044
:10065000CF900895CF93DF931F92CDB7DEB7698314
:10066000209134022223F9F020915A02203258F0CE
:1006700021E030E0FC013383228390E080E00F90A2
:10068000DF91CF91089580915B02E82FF0E0EB5C61
:10069000FD4F998190838F5F80935B0280935A0214
:1006A00081E090E0ECCF61E0CE0101960E946D0206
:1006B000F7CFCF92DF92EF92FF920F931F93CF93DA
:1006C000DF93FC01C48121E020933402C0935502E2
:1006D00010925B0210925A028385682B89E692E0A1
:1006E0000E942A03D0915A02D13208F092C00E948F
:1006F000DB016B017C0180912E02811165C082E0DB
:1007000080932E0281E080932D028FEF80932C0244
:1007100010922B02D0932A02A5E3B2E0EAE0F2E0C5
:1007200080E0D81385C01092090280910902CC0F95
:10073000C82BC093090280910802813009F07CC067
:10074000109208020E94DB016B017C01809109027A
:100750008093BB008091300290913102A0913202CF
:10076000B0913302892B8A2B8B2B99F00E94DB01ED
:100770000091300210913102209132023091330207
:100780006C197D098E099F09061717072807390775
:10079000E0F18091BC0083FDD9CF85EC8093BC0053
:1007A0000E94DB016B017C0180912E02823009F4F2
:1007B00045C080912C028F3F61F180912C028032E4
:1007C00041F180912C0225C080913002909131023C
:1007D000A0913202B0913302892B8A2B8B2B09F422
:1007E0008ACF0E94DB0100913002109131022091EA
:1007F0003202309133026C197D098E099F09061768
:1008000017072807390708F076CF80912F020E943A
:10081000B20210925B0210925A0210923402DF91DF
:10082000CF911F910F91FF90EF90DF90CF9008959F
:100830009D9191938F5F75CF85EEB0CF80913002FF
:1008400090913102A0913202B0913302892B8A2B10
:100850008B2B09F4A9CF0E94DB010091300210918B
:10086000310220913202309133026C197D098E09D8
:100870009F09061717072807390708F095CFC5CF36
:1008800090E080E00895FC0101900020E9F73197A5
:10089000AF01481B590BBC018BEF92E00C943F0257
:1008A0000F931F93CF938C01C62F0E9459036C2F77
:1008B0006460C8010E9459036C2F6B7FC8010E94BD
:1008C000590383EC90E00197F1F7CF911F910F91BD
:1008D00008950F931F93CF93DF938C01D62FC42FCE
:1008E000607F642B0E94500480E1D89FB0011124E6
:1008F0006C2BC801DF91CF911F910F910C94500484
:10090000CF93DF93CDB7DEB728970FB6F894DEBF4D
:100910000FBECDBF98E0E3E1F1E0DE01119601905A
:100920000D929A95E1F790910303961708F46FEFF3
:10093000262F30E0220F331F41E050E04C0F5D1FA7
:10094000240F351FF9016081680F606840E08BEF6C
:1009500092E028960FB6F894DEBF0FBECDBFDF91B0
:10096000CF910C94690440E061E08BEF92E00E942B
:1009700069048BE39FE10197F1F708950E94B304A6
:1009800060E080E00E94800483E491E00E944304E0
:1009900061E080E00E94800483E591E00E944304CE
:1009A000E5E7F2E0168A128210925F0210925E0270
:1009B000089541E00E94690481E090E0089585ED8A
:1009C0008093BC008091300290913102A09132025C
:1009D000B09133020796A11DB11D23E0B695A795EE
:1009E000979587952A95D1F72091BC0024FD03C0E7
:1009F00010922E0208954091300250913102609180
:100A0000320270913302452B462B472B69F3009736
:100A1000A105B10541F02AE22A95F1F700C001973E
:100A2000A109B109E1CF80912F020C94B2021F926B
:100A30000F920FB60F9211242F933F938F939F9392
:100A4000AF93BF938091650290916602A091670277
:100A5000B09168023091600223E0230F2D3758F5E2
:100A60000196A11DB11D20936002809365029093B1
:100A70006602A0936702B093680280916102909130
:100A80006202A0916302B09164020196A11DB11DA2
:100A90008093610290936202A0936302B093640218
:100AA000BF91AF919F918F913F912F910F900FBE6A
:100AB0000F901F90189526E8230F0296A11DB11DD7
:100AC000D2CF1F920F920FB60F9211242F933F9304
:100AD0004F935F936F937F938F939F93AF93BF9346
:100AE000EF93FF938091B900887F803609F44AC064
:100AF000F0F5883209F4A7C018F5803109F49BC0DD
:100B0000B8F4882309F4F9C0883009F494C0FF913F
:100B1000EF91BF91AF919F918F917F916F915F9175
:100B20004F913F912F910F900FBE0F901F901895EE
:100B3000883109F488C0803251F780932C0214C0A8
:100B4000803409F49DC040F48033B9F38833F9F65A
:100B500080932C0285ECB0C0803509F485C08835BF
:100B600009F496C0883499F60E94DF04D0CF883902
:100B700009F48CC038F5883729F050F4883611F024
:100B8000803729F683E080932E021092070257C027
:100B9000883809F47BC0803919F0803809F0B7CF64
:100BA00080910702803208F071C0E091070281E075
:100BB0008E0F809307028091BB00F0E0E951FE4F59
:100BC00080833DC0803B39F0E0F4803A09F479C07D
:100BD000883A09F09CCF84E080932E021092E601BF
:100BE0001092E501E0915802F09159020995809127
:100BF000E50181110FC081E08093E5011092C501EC
:100C000009C0803C09F4A6CF883C09F4A3CF883BF7
:100C100009F07DCFE091E60181E08E0F8093E6013F
:100C2000F0E0EB53FE4F80818093BB009091E60192
:100C30008091E50129C0809109028093BB0085EC79
:100C40008093BC0064CF90912B0280912A02981768
:100C500058F5E0912B0281E08E0F80932B02F0E09B
:100C6000E65FFD4F8081E9CFE0912B0281E08E0F9E
:100C700080932B028091BB00F0E0E65FFD4F808304
:100C800090912B0280912A029817C8F285E8D8CF5C
:100C9000E0912B0281E08E0F80932B028091BB00AC
:100CA000F0E0E65FFD4F808380912D0281115CCFE3
:100CB00081E08093080284EA8093BC0010922E02A7
:100CC00026CF85EC8093BC0010922E028091070203
:100CD000803230F4E0910702F0E0E951FE4F1082DB
:100CE0006091070270E0E0915602F091570287EEA2
:100CF00091E00995109207020ACF10922C0234CF8E
:100D000010926C0210926B0288EE93E0A0E0B0E0CB
:100D100080936D0290936E02A0936F02B093700265
:100D20008FE191E090936A02809369021092FE0233
:100D30001092FD028BE391E09093FC028093FB0202
:100D400080E58093FF0280E18093040382E080933A
:100D500005031092060310928E02109292021092D6
:100D600091021092930281E391E090938D0280931F
:100D70008C02E8EAF2E01082148213821582369621
:100D800082E0E43EF807B9F783E091E09093EF0248
:100D90008093EE0280E091E09093F1028093F00264
:100DA00084E08093F20283E08093F30287E091E095
:100DB0009093ED028093EC028AE090E09093F5022C
:100DC0008093F40284EF91E09093F7028093F6020F
:100DD0001092FA021092F9021092E8021092E902BF
:100DE0001092EA021092EB021092F8028BE591E069
:100DF000909376028093750210928B021092770284
:100E00000895789484B5826084BD84B5816084BD82
:100E100085B5826085BD85B5816085BD80916E0098
:100E2000816080936E0010928100809181008260C9
:100E30008093810080918100816080938100809106
:100E400080008160809380008091B10084608093F5
:100E5000B1008091B00081608093B00080917A00F1
:100E6000846080937A0080917A00826080937A0017
:100E700080917A00816080937A0080917A00806806
:100E800080937A001092C10061E08DE00E949F0182
:100E900060E08DE00E94710110925D0210925C0290
:100EA00010925B0210925A020E9494028DE392E02B
:100EB00090935902809358028EE392E090935702E8
:100EC000809356021092000380910503823018F03F
:100ED00098E0909300038093030362E370E080E066
:100EE00090E00E940002609106038BEF92E00E9466
:100EF000590368EE73E080E090E00E94000260E336
:100F00008BEF92E00E945004CBE4D6E4CE0101972F
:100F1000F1F760E38BEF92E00E9450042197F1F724
:100F200060E38BEF92E00E94500483E592E001972A
:100F3000F1F760E28BEF92E00E94500460910003B1
:100F4000606240E08BEF92E00E94690484E080934D
:100F5000010340E06CE08BEF92E00E9469040E9484
:100F6000B30482E08093020340E066E08BEF92E0FE
:100F70000E94690440E062E08BEF92E00E94690405
:100F80008BE39FE10197F1F788E08093060360E02F
:100F90008BEF92E00E94590360E080E00E948004A1
:100FA0008FE591E00E94430461E080E00E948004AC
:100FB00083E491E00E94430460ED77E080E090E0FC
:100FC0000E9400020E94BE04812C912C5401839443
:100FD00044244A94542C50E0652E50E0752E51E084
:100FE0005093F8028FB7F8944091650250916602D1
:100FF00060916702709168028FBF8091E8029091C2
:10100000E902A091EA02B091EB02481B590B6A0B6E
:101010007B0B8091F4029091F502B0E0A0E0841780
:101020009507A607B70708F013C1C0E08091F20248
:10103000C81760F4E091EE02F091EF02EC0FF11DA1
:1010400062E080810E949F01CF5FF0CF312C8091C0
:10105000F302381608F05FC0032D10E0E091F002B3
:10106000F091F102E00FF11F61E080810E949F0189
:10107000E091F002F091F102E00FF11F60E0808159
:101080000E947101D501C401032C04C0880F991F6F
:10109000AA1FBB1F0A94D2F76C017C01E094F09464
:1010A000212C8091F2022816F8F4C22DD0E0E091B4
:1010B000EE02F091EF02EC0FFD1F80810E944801CB
:1010C0002496CC0FDD1FC457DD4F892B41F4888156
:1010D00099818C299D29998388832394E2CF8881E3
:1010E00099818E219F21F7CFE091F002F091F102DA
:1010F000E00FF11F61E080810E9471018091F00298
:101100009091F102080F191F60E0F80180810E94A0
:101110009F0133949CCF0CE812E0E8018F8D98A1D9
:10112000892B21F41C8E5E8E4D8E19A22696F2E03C
:10113000C83CDF0799F7D12C8091F202D81608F04D
:1011400053C0C12CED2CF12CEE0CFF1CC7018C56AA
:101150009D4F7C012091F302C21608F043C0F701B5
:10116000608171810C2C02C0769567950A94E2F734
:10117000D29E900111242C0D311DECE8F2E080E0AC
:10118000458D568D2417350709F4FBC08F5F3696C1
:101190008A30B1F760FF24C0ECE8F2E090E080E034
:1011A000448D411118C0E091EC02F091ED02E20F84
:1011B000F31F408156E0589FF001599FF00D112414
:1011C000E457FD4F448F368F258F10A2178E61E0B4
:1011D0000E94AF0005C0019636968A30910501F74E
:1011E000C394B8CFD394A8CF80E0F80191A1911116
:1011F000892F0A5F1F4FC017D107B9F79FB7F8941F
:101200004091650250916602609167027091680298
:101210009FBF4093E8025093E9026093EA02709303
:10122000EB028823A9F08091AD02882389F0809198
:10123000AB029091AC02019759F43091A8023111A0
:101240000AC06114710409F4CACE0E940000C7CE1E
:101250001092F802F6CF80ED830F8A3030F580913E
:101260005E0290915F02833091055CF7E0918B0202
:10127000E33169F021E02E0F20938B02F0E0EB5870
:10128000FD4F3283E22FF0E0EB58FD4F12820196C2
:1012900090935F0280935E0261E08A5F0E94800407
:1012A00081E791E00E944304CCCF3A3209F065C057
:1012B00080915E0290915F0203977CF40E94B304D8
:1012C00060E080E00E94800483E791E00E94430494
:1012D00060ED77E080E090E033C0809175029091FE
:1012E0007602FC01319120917702A8E7B2E04496A2
:1012F00031112BC0211130C00E94B30460E080E0A6
:101300000E94800485E891E00E94430461E080E04F
:101310000E9480048CE891E00E94430461E08DE02B
:101320000E94710168EE73E080E090E00E9400028C
:1013300060E08DE00E94710168EE73E080E090E073
:101340000E9400020E94BE047CCF321305C031917E
:101350002D91E817F90761F60E94B30460E080E080
:101360000E94800488E991E00E94430461E080E0EB
:101370000E9480048CE891E0A9CF333209F061CF5C
:10138000E1CF617025CFEE0FFF1F0590F491E02DA6
:061390000994F894FFCF60
:1013960008090A0405060731323334353637383939
:1013A6002A30230000400014005400000000002AE8
:1013B60003FD024004D302F602E302D40200000059
:1013C60000320236023A0200000000D9043F024011
:1013D600046C0244696769746520612073656E68F0
:1013E600613A0053656E68613A2000313233005429
:1013F60072616E636120456C6574726F6E696361BC
:10140600002A004469676974652033206469676946
:10141600746F73210041636573736F006175746F38
:1014260072697A61646F210041636573736F206E20
:04143600616F0000E2
:00000001FF
